:100000000C9434000C9451000C9451000C94510049
:100010000C9451000C9451000C9451000C9451001C
:100020000C9451000C9451000C9451000C9451000C
:100030000C9451000C9451000C9451000C945100FC
:100040000C9451000C9451000C9451000C945100EC
:100050000C9451000C9451000C9451000C945100DC
:100060000C9451000C94510011241FBECFEFD4E02A
:10007000DEBFCDBF11E0A0E0B1E0ECECF2E002C0E9
:1000800005900D92AC34B107D9F721E0ACE4B1E0B2
:1000900001C01D92A235B207E1F70E94B7000C948F
:1000A00064010C9400000E94400186EA0E94510104
:1000B0008DE20E94510188E00E94510181E30E947B
:1000C000510188E00E9451010C9445010E944001B9
:1000D00086EA0E94510182E30E9451010E94400180
:1000E00087EA0E9451010E94490180934D010E94BC
:1000F000450180E091E00E94060180914D010C9441
:1001000019010E94400186EA0E94510184E30E9485
:1001100051010E94400187EA0E9451010E94490159
:10012000809351010E94450186E091E00E94060102
:10013000809151010C9419010E94400186EA0E94AD
:10014000510186E30E9451010E94400187EA0E940A
:1001500051010E944901809350010E9445018CE0A9
:1001600091E00E940601809150010C9419010E94B7
:10017000EE0082E191E00E9406010E9432012FE32D
:100180008DE093E0215080409040E1F700C00000F6
:1001900084E391E00E9406010E9453008FE391E006
:1001A0000E9406012FE986E891E0215080409040AE
:1001B000E1F700C000000E9466000E9481000E94DA
:1001C0009C0088E491E00E94060188E491E00E948E
:1001D000060187EA91E60197F1F7EBCF1092C5008F
:1001E0008CE08093C400E0ECF0E08081826080834A
:1001F00088E18093C10086E08093C20008959091C9
:10020000C00095FFFCCF8093C60008950F931F9305
:10021000CF938C01C0E0F801EC0FF11D80818823A1
:1002200021F00E94FF00CF5FF6CFCF911F910F9179
:100230000895CF93C82F64E60E945801805D0E9404
:10024000FF002AE08C2F622F0E945801C92F0E94C4
:10025000580180E3890F0E94FF0080E38C0FCF914B
:100260000C94FF0080E28093B800ECEBF0E080811A
:100270008460808308958091BC0087FFFCCF08953F
:1002800084EA8093BC000C943B0184E98093BC0019
:10029000089584E88093BC000E943B018091BB00DC
:1002A00008958093BB0084E88093BC000C943B01CC
:1002B000991B79E004C0991F961708F0961B881FB8
:0C02C0007A95C9F780950895F894FFCF57
:1002CC000A0D583A20000A0D593A20000A0D5A3AE4
:1002DC0020000A0D3D3D3D3D2020693263204163E5
:1002EC0063656C65726F6D6574657220203D3D3D74
:1002FC003D0D0A0069326320696E69740A0D006154
:0C030C0064786C20496E69740A0D0000D2
:00000001FF
