:100000000C9434000C9449000C9449000C94490061
:100010000C9449000C9449000C9449000C9449003C
:100020000C9449000C9449000C9449000C9449002C
:100030000C9449000C9449000C9449000C9449001C
:100040000C9449000C9449000C9449000C9449000C
:100050000C9449000C9449000C9449000C944900FC
:100060000C9449000C94490011241FBECFEFD4E03A
:10007000DEBFCDBF11E0A0E0B1E0E4E2F2E002C0FB
:1000800005900D92A433B107D9F70E944B000C9450
:1000900010010C94000090E080E80FB6F894809373
:1000A0006100909361000FBE0E94C00080E091E06B
:1000B0000E94D8000E9492002FEF84E39CE0215020
:1000C00080409040E1F700C0000080E291E00E9493
:1000D000D8000E94A00080E90E94B90080E00E9440
:1000E000B9000E94A00081E90E94B9000E94A90005
:1000F000D82F0E94B100C82F0E94A5008D2F0E940A
:10010000EB00C7FF03C089E291E002C08EE291E0FC
:100110000E94D8002FEF89E698E12150804090405E
:10012000E1F7D1CF80E28093B800ECEBF0E0808182
:100130008460808308958091BC0087FFFCCF089580
:1001400084EA8093BC000C949B0084E98093BC00FB
:10015000089584EC8093BC000E949B008091BB00BA
:10016000089584E88093BC000E949B008091BB00AE
:1001700008958093BB0084E88093BC000C949B009E
:100180001092C5008CE08093C400E0ECF0E0808128
:100190008260808388E18093C10086E08093C20002
:1001A00008959091C00095FFFCCF8093C6000895FC
:1001B0000F931F93CF938C01C0E0F801EC0FF11D5A
:1001C0008081882321F00E94D100CF5FF6CFCF91AC
:1001D0001F910F910895CF93C82F64E60E940401E8
:1001E000805D0E94D1002AE08C2F622F0E940401C2
:1001F000C92F0E94040180E3890F0E94D10080E38F
:100200008C0FCF910C94D100991B79E004C0991FF9
:10021000961708F0961B881F7A95C9F78095089560
:04022000F894FFCF80
:100224000D0A3D3D3D3D20206932632054686572CE
:100234006D6F6D6574657220203D3D3D3D0D0A0076
:1002440069326320496E6974002E350D0A002E3020
:040254000D0A00008F
:00000001FF
