:100000000C9434000C9449000C9449000C94490061
:100010000C9449000C9449000C9449000C9449003C
:100020000C9449000C9449000C9449000C9449002C
:100030000C9449000C9449000C9449000C9449001C
:100040000C9449000C9449000C9449000C9449000C
:100050000C9449000C9449000C9449000C944900FC
:100060000C9449000C94490011241FBECFEFD4E03A
:10007000DEBFCDBF11E0A0E0B1E0EEE9F2E002C0EA
:1000800005900D92A239B107D9F70E944B000C944C
:100090004D010C940000CCEDD5E0D0938900C093C5
:1000A0008800809180008260809380008091810030
:1000B00088618093810080918100816080938100BC
:1000C00080E29EE490938700809386008091800078
:1000D000806880938000219A0E941B0180E091E05B
:1000E0000E943A018EE191E00E943A01D09389008A
:1000F000C09388002FED83E994E021508040904028
:10010000E1F700C0000087E291E00E943A0188EE2A
:1001100093E090938900809388002FED83E994E029
:10012000215080409040E1F700C0000087E391E05B
:100130000E943A0180ED97E09093890080938800B7
:100140002FED83E994E0215080409040E1F700C01A
:1001500000008EE191E00E943A01D0938900C093A3
:1001600088002FED83E994E0215080409040E1F732
:1001700000C0000008EE13E024E6F22E8EE491E0C9
:100180000E943A0180E3D82ED0E390E3E92EC0E349
:100190000E943301C82E0E942C012DE0C21629F0C6
:1001A000CE2DED2EDD2DDC2CF3CF8AE00E942C012C
:1001B0008C2F90E0C097809FA001819F500D909F51
:1001C000500D11248E2D90E0C097F89E9001F99E5D
:1001D000300D1124420F531F2D2F30E020533109D1
:1001E0006AE0629FC001639F900D1124EA01C80F6D
:1001F000D91FCD0DD11DE09783E791E00E943A0110
:10020000D0938900C0938800219A8FE39DE023E07A
:10021000815090402040E1F700C0000083E891E069
:100220000E943A018091840090918500883B9B4018
:10023000C8F32198A3CF1092C5008CE08093C4002E
:10024000E0ECF0E080818260808388E18093C100EF
:1002500086E08093C20008959091C00095FFFCCF86
:100260008093C60008958091C00087FFFCCF8091E5
:10027000C60008950F931F93CF938C01C0E0F8013F
:10028000EC0FF11D8081882321F00E942C01CF5FAB
:0E029000F6CFCF911F910F910895F894FFCFF4
:10029E000D0A57656C636F6D6520746F2074686509
:1002AE0020536572766F2044656D6F0D0A004365AD
:1002BE006E7465720D0A00436C6F636B77697365BC
:1002CE00204D61780D0A00436F756E746572636C14
:1002DE006F636B77697365204D61780D0A000D0AA7
:1002EE00456E746572206120666F75722D64696744
:1002FE0069742070756C7365206C656E6774683AEE
:10030E000D0A004F6E206D79207761792E2E2E2EDC
:10031E000D0A0052656C656173696E672E2E2E0D87
:02032E000A00C3
:00000001FF
