:100000000C9434000C9451000C9451000C94510049
:100010000C9451000C9451000C9451000C9451001C
:100020000C9451000C9451000C9451000C9451000C
:100030000C9451000C9451000C9451000C945100FC
:100040000C9451000C9451000C9451000C945100EC
:100050000C9451000C9451000C9451000C945100DC
:100060000C9451000C94510011241FBECFEFD4E02A
:10007000DEBFCDBF11E0A0E0B1E0E8E3F2E002C0F6
:1000800005900D92A831B107D9F721E0A8E1B1E0C0
:1000900001C01D92AC31B207E1F70E949A000C94A6
:1000A0001A010C9400001092C5008CE08093C400EB
:1000B000E0ECF0E080818260808388E18093C10081
:1000C00086E08093C20008959091C00095FFFCCF18
:1000D0008093C60008950F931F93CF938C01C0E0C7
:1000E000F801EC0FF11D8081882321F00E9464004B
:1000F000CF5FF6CFCF911F910F9108959093890014
:1001000080938800219A8091840090918500883B9B
:100110009B40C8F32198089590938B0080938A00A8
:10012000229A8091840090918500883B9B40C8F37F
:10013000229808958AB18C608AB98EE096E09093F7
:100140008900809388008091800082608093800085
:10015000809181008861809381008091810081601D
:100160008093810080E29EE49093870080938600D4
:1001700080918000806880938000219A0E945300C3
:10018000C1E0D0E0499905C0D0931B01C0931A018A
:1001900004C010921B0110921A014A9905C0D09315
:1001A0001901C093180104C010921901109218018E
:1001B00080911A0190911B01019739F488EB96E028
:1001C0000E947E0085E091E006C08EE096E00E94ED
:1001D0007E0080E091E00E946B008AE091E00E9446
:1001E0006B0083ED90E30197F1F700C00000809170
:1001F000180190911901019739F488EB96E00E945B
:100200008C0082E191E006C08EE096E00E948C00B6
:100210008DE091E00E946B008AE091E00E946B000B
:100220009FE32DE083E0915020408040E1F700C043
:080230000000A8CFF894FFCFF5
:1002380053746F70204C656674000A0D0053746F18
:08024800702052696768740020
:00000001FF
