:100000000C9434000C9446000C9448000C94460068
:100010000C9446000C9446000C9446000C94460048
:100020000C9446000C9446000C9446000C94460038
:100030000C9446000C9446000C9446000C94460028
:100040000C9446000C9446000C9446000C94460018
:100050000C9446000C9446000C9446000C94460008
:100060000C9446000C94460011241FBECFEFD4E040
:10007000DEBFCDBF21E0A0E0B1E001C01D92A43001
:10008000B207E1F70E9479000C94A9000C940000DB
:100090001F920F920FB60F9211242F933F938F93BD
:1000A0009F938091000190910101892BC9F4809167
:1000B0000201909103012091020130910301220F6E
:1000C000331F821B930B01969093030180930201CF
:1000D00081E090E090930101809300018FEF85B95A
:1000E0009F918F913F912F910F900FBE0F901F9076
:1000F0001895109201011092000181E090E0909318
:100100000301809302011AB85B9AE99A8091690011
:10011000816080936900789484B18FEF84B980E026
:1001200020910201309103012130310511F48F5FDC
:1001300001C0815085B92FE33DE093E0215030406C
:100140009040E1F700C00000109201011092000100
:06015000E7CFF894FFCF99
:00000001FF
