:100000000C9434000C9449000C9449000C94490061
:100010000C9449000C9449000C9449000C9449003C
:100020000C9449000C9449000C9449000C9449002C
:100030000C9449000C9449000C9449000C9449001C
:100040000C9449000C9449000C9449000C9449000C
:100050000C9449000C9449000C9449000C944900FC
:100060000C9449000C94490011241FBECFEFD4E03A
:10007000DEBFCDBF11E0A0E0B1E0E2EEF1E002C0F2
:1000800005900D92A231B107D9F70E9496000C9409
:10009000EF000C9400001092C5008CE08093C40027
:1000A000E0ECF0E080818260808388E18093C10091
:1000B00086E08093C20008959091C00095FFFCCF28
:1000C0008093C60008958091C00087FFFCCF809187
:1000D000C60008950F931F93CF938C01C0E0F801E1
:1000E000EC0FF11D8081882321F00E945C00CF5F1E
:1000F000F6CFCF911F910F910895CF93C82F64E64B
:100100000E94E300805D0E945C002AE08C2F622F39
:100110000E94E300C92F0E94E30080E3890F0E9440
:100120005C0080E38C0FCF910C945C0080917C008C
:10013000806480937C0080917A00846080937A0050
:1001400080917A00806880937A0084B1876084B956
:10015000579A0E944B0080E091E00E946A008091D3
:100160007A00806480937A0080917A0086FDFCCFCB
:10017000C0917800D0917900CC0FCD2FCC1FDD0B32
:10018000D1958091C00087FF0DC00E946300843626
:1001900049F48BB180588BB987EA91E60197F1F762
:1001A00000C000004D9B07C08C2F0E947D008FE097
:1001B00091E00E946A00C5B983ED90E30197F1F7E1
:1001C00000C00000CCCF991B79E004C0991F96179E
:1001D00008F0961B881F7A95C9F780950895F894C2
:0201E000FFCF4F
:1001E20048656C6C6F20576F726C64210D0A000AAF
:0201F2000D00FE
:00000001FF
