:100000000C9434000C943E000C943E000C943E0082
:100010000C943E000C943E000C943E000C943E0068
:100020000C943E000C943E000C943E000C943E0058
:100030000C943E000C943E000C943E000C943E0048
:100040000C943E000C943E000C943E000C943E0038
:100050000C943E000C943E000C943E000C943E0028
:100060000C943E000C943E0011241FBECFEFD4E050
:10007000DEBFCDBF0E9440000C947F000C940000B6
:100080008AB18FEF8AB914B8289A81E08BB920E041
:1000900030E081E090E0189BFECF2F5F3F4FE7EA12
:1000A000F1E63197F1F700C0000023303105D9F0B7
:1000B0004CF42130310589F022303105C1F48878C3
:1000C000992715C02430310581F02530310579F4A8
:1000D000F8E88F2720E030E00AC043E0880F991F3E
:1000E0004A95E1F704C0886802C0809590958BB965
:1000F000E1E0F3E53197F1F700C00000CCCFF894D0
:02010000FFCF2F
:00000001FF
